:100000000C9435000C945D000C945D000C94380247
:100010000C9438020C9438020C945D000C945D0032
:100020000C945D000C945D000C945D000C945D00DC
:100030000C945D000C945D000C945D000C945D00CC
:100040000C9496010C945D000C9406020C94E00153
:100050000C945D000C945D000C945D000C945D00AC
:100060000C945D000C945D00420211241FBECFEF82
:10007000D8E0DEBFCDBF11E0A0E0B1E0ECE0F7E0FA
:1000800002C005900D92A231B107D9F721E0A2E19B
:10009000B1E001C01D92A23DB207E1F710E0C5E357
:1000A000D0E004C02197FE010E947903C433D10738
:1000B000C9F70E9476020C9484030C9400003FB7A9
:1000C000F8948091190190911A01A0911B01B091AF
:1000D0001C0126B5A89B05C02F3F19F00196A11D54
:1000E000B11D3FBFBA2FA92F982F8827820F911DCE
:1000F000A11DB11DBC01CD0142E0660F771F881F15
:10010000991F4A95D1F70895CF92DF92EF92FF920F
:100110000F931F93CF93DF936C017A018B01C0E0A3
:10012000D0E0CE15DF0581F0D8016D918D01D601AB
:10013000ED91FC910190F081E02DC6010995892B8C
:1001400011F02196EECF7E01C701DF91CF911F9173
:100150000F91FF90EF90DF90CF900895FC01538DA9
:10016000448D252F30E0842F90E0821B930B541791
:1001700010F0CF96089501970895FC01918D828D1E
:10018000981761F0828DDF01A80FB11D5D968C91EB
:10019000928D9F5F9F73928F90E008958FEF9FEFF6
:1001A0000895FC01918D828D981731F0828DE80FB2
:1001B000F11D858D90E008958FEF9FEF0895FC016C
:1001C000918D228D892F90E0805C9F4F821B910939
:1001D0008F73992708958DE191E00E94DF0021E05F
:1001E000892B09F420E0822F0895FC01848DDF0122
:1001F000A80FB11DA35ABF4F2C91848D90E001969A
:100200008F739927848FA689B7892C93A089B18988
:100210008C91837080648C93938D848D981306C029
:100220000288F389E02D80818F7D80830895EF928D
:10023000FF920F931F93CF93DF93EC0181E0888FA0
:100240009B8D8C8D981305C0E889F989808185FD87
:1002500026C0F62E0B8D10E00F5F1F4F0F73112776
:10026000E02E8C8DE8120CC00FB607FCFACFE8899F
:10027000F989808185FFF5CFCE010E94F500F1CF8D
:100280008B8DFE01E80FF11DE35AFF4FF0829FB7FF
:10029000F8940B8FEA89FB89808180620AC09FB73E
:1002A000F894EE89FF896083E889F98980818370F9
:1002B000806480839FBF81E090E0DF91CF911F91A8
:1002C0000F91FF90EF900895CF93DF93EC01888D0D
:1002D0008823C9F0EA89FB89808185FD05C0A8894A
:1002E000B9898C9186FD0FC00FB607FCF5CF8081D0
:1002F00085FFF2CFA889B9898C9185FFEDCFCE011A
:100300000E94F500E7CFDF91CF91089580E090E063
:10031000892B29F00E94EB0081110C9400000895B4
:10032000089580E090E008950E947F031F920F924D
:100330000FB60F9211242F933F938F939F93AF93F8
:10034000BF938091150190911601A0911701B09172
:1003500018013091140123E0230F2D3720F401966A
:10036000A11DB11D05C026E8230F0296A11DB11DD8
:10037000209314018093150190931601A093170107
:10038000B09318018091190190911A01A0911B015D
:10039000B0911C010196A11DB11D8093190190938C
:1003A0001A01A0931B01B0931C01BF91AF919F91C3
:1003B0008F913F912F910F900FBE0F901F90189526
:1003C0001F920F920FB60F9211242F933F934F93CA
:1003D0005F936F937F938F939F93AF93BF93EF93AD
:1003E000FF938DE191E00E94F500FF91EF91BF91A5
:1003F000AF919F918F917F916F915F914F913F91BD
:100400002F910F900FBE0F901F9018951F920F9273
:100410000FB60F9211242F938F939F93EF93FF9317
:10042000E0912D01F0912E018081E0913301F09156
:10043000340182FD12C09081809136018F5F8F73ED
:1004400020913701821751F0E0913601F0E0E35E30
:10045000FE4F958F8093360101C08081FF91EF910F
:100460009F918F912F910F900FBE0F901F90189515
:100470001F920F920FB60F9211240F900FBE0F9084
:100480001F901895EDE1F1E01382128288EE93E05F
:10049000A0E0B0E084839583A683B78384E091E0F5
:1004A0009183808385EC90E09587848784EC90E04D
:1004B0009787868780EC90E0918B808B81EC90E031
:1004C000938B828B82EC90E0958B848B86EC90E012
:1004D000978B868B118E128E138E148EEAEBF1E0C1
:1004E0001086148A158A168A178A0895789484B516
:1004F000826084BD84B5816084BD85B5826085BD20
:1005000085B5816085BD80916E00816080936E00AD
:10051000109281008091810082608093810080919F
:100520008100816080938100809180008160809350
:1005300080008091B10084608093B1008091B00010
:1005400081608093B00080917A00846080937A000B
:1005500080917A00826080937A0080917A00816035
:1005600080937A0080917A00806880937A0010925C
:10057000C100E0912D01F0912E0182E08083E09195
:100580002901F0912A011082E0912B01F0912C01B8
:100590008FEC808310923501E0913101F0913201AE
:1005A00086E08083E0912F01F091300180818061AD
:1005B0008083E0912F01F0913001808188608083F9
:1005C000E0912F01F0913001808180688083E0917B
:1005D0002F01F091300180818F7D80830BE110E04D
:1005E00088EC482E512C612C712C8FB7F894C09058
:1005F0001501D0901601E0901701F09018018FBFFF
:100600008DE191E00E94DF00089748F0C9E0D0E05A
:10061000219729F08DE191E00E94BD00F9CF2FB71D
:10062000F8948091150190911601A0911701B09155
:1006300018012FBF8093BE019093BF01A093C0010A
:10064000B093C1011093BB010093BA018BE096E314
:10065000AAE8B1E08093CE019093CF01A093D0019E
:10066000B093D10148E150E06AEB71E08DE191E097
:100670000E9484002FB7F894809115019091160183
:10068000A0911701B09118012FBF8C199D09AE09D7
:10069000BF0973016201C81AD90AEA0AFB0A0E945B
:1006A0005F004B015C01C114D104E104F104F1F0DD
:1006B0000E945F00DC01CB0188199909AA09BB09D6
:1006C000883E9340A105B10570F391E0C91AD108A5
:1006D000E108F108A8EE8A0EA3E09A1EA11CB11C45
:1006E000C114D104E104F10419F7DDCF0E948601A1
:1006F0007CCFEE0FFF1F0590F491E02D099481E06F
:0C07000090E0F8940C948403F894FFCF70
:10070C000000000017018400AE006401DF00BD0092
:02071C00D1000A
:107E0000112484B714BE81FFF0D085E080938100F7
:107E100082E08093C00088E18093C10086E0809377
:107E2000C20080E18093C4008EE0C9D0259A86E02C
:107E300020E33CEF91E0309385002093840096BBD3
:107E4000B09BFECF1D9AA8958150A9F7CC24DD24C4
:107E500088248394B5E0AB2EA1E19A2EF3E0BF2EE7
:107E6000A2D0813461F49FD0082FAFD0023811F036
:107E7000013811F484E001C083E08DD089C08234E0
:107E800011F484E103C0853419F485E0A6D080C0E4
:107E9000853579F488D0E82EFF2485D0082F10E0AE
:107EA000102F00270E291F29000F111F8ED06801E7
:107EB0006FC0863521F484E090D080E0DECF843638
:107EC00009F040C070D06FD0082F6DD080E0C81688
:107ED00080E7D80618F4F601B7BEE895C0E0D1E017
:107EE00062D089930C17E1F7F0E0CF16F0E7DF06D8
:107EF00018F0F601B7BEE89568D007B600FCFDCFD4
:107F0000A601A0E0B1E02C9130E011968C91119780
:107F100090E0982F8827822B932B1296FA010C0160
:107F200087BEE89511244E5F5F4FF1E0A038BF0790
:107F300051F7F601A7BEE89507B600FCFDCF97BE46
:107F4000E89526C08437B1F42ED02DD0F82E2BD052
:107F50003CD0F601EF2C8F010F5F1F4F84911BD097
:107F6000EA94F801C1F70894C11CD11CFA94CF0C13
:107F7000D11C0EC0853739F428D08EE10CD085E9AC
:107F80000AD08FE07ACF813511F488E018D01DD067
:107F900080E101D065CF982F8091C00085FFFCCF94
:107FA0009093C60008958091C00087FFFCCF809118
:107FB000C00084FD01C0A8958091C6000895E0E648
:107FC000F0E098E1908380830895EDDF803219F02E
:107FD00088E0F5DFFFCF84E1DECF1F93182FE3DFCA
:107FE0001150E9F7F2DF1F91089580E0E8DFEE27F6
:047FF000FF270994CA
:027FFE00040479
:0400000300007E007B
:00000001FF
